:10000000E80C00203D060000E70F0000110600008C
:100010001106000011060000110600001106000084
:1000200000000000000000000000000011030000BC
:10003000110600000000000011060000110600007B
:100040006D0300006D0300006D0300006D030000F0
:100050006D0300006D0300006D0300006D030000E0
:100060006D0300006D0300006D0300006D030000D0
:100070006D0300006D0300006D0300006D030000C0
:100080006D0300006D0300006D0300006D030000B0
:100090006D0300006D0300006D0300006D030000A0
:1000A0006D0300006D0300006D0300006D03000090
:1000B0006D0300006D0300006D0300006D03000080
:1000C0006D0300006D0300006D0300006D03000070
:1000D0006D0300006D0300006D0300006D03000060
:1000E0006D0300006D0300006D0300006D03000050
:1000F0006D0300006D0300006D0300006D03000040
:100100006D0300006D0300006D0300006D0300002F
:100110006D0300006D0300006D0300006D0300001F
:100120006D0300006D0300006D0300006D0300000F
:100130006D0300006D0300006D0300006D030000FF
:100140006D0300006D0300006D0300006D030000EF
:040150006D0300003B
:1001540002234FF080500A4A03F180010133202B1F
:1001640042F82100F8D100234FF08050054A03F1F2
:1001740080010133102B42F82100F8D10020704790
:10018400002584500028845008B50249024800F034
:1001940020FE00BF701608500016085000F01F0221
:1001A40040090DD001280DD1094B03EB8203D3F88C
:1001B400002222F0E04242EA0171C3F800127047C3
:1001C400044BF2E70023803253F82230FFDE00BFF5
:1001D400002884500025845038B50124134B144D55
:1001E400C3F8004502230321C5F8D0360020FFF7E9
:1001F400D5FF20460321FFF7D1FFC5F80447214668
:10020400C5F804492120C5F8004BFFF7C7FF214674
:100214002020FFF7C3FF21460B20FFF7BFFF214635
:100224000A20FFF7BBFF002038BD00BF00100050BC
:100234000040005007B50DF1070000F0F2FE114B2D
:1002440098421CD14FF480620F4B1049C3F8B82573
:100254004FF40062C3F83C259DF8070000F0DCFE73
:100264000B499DF8070000F0D2FE01209DF80730ED
:10027400984000F0B1FB002003B05DF804FB6FF080
:100284000B00F9E70000AD0B00A002502CA00250B7
:1002940028A1025000F08CBA014800F093BC00BFC2
:1002A40018130000014910220A60704710ED00E0A5
:1002B40072B6404080F31188BFF36F8FBFF34F8F46
:1002C40030BF62B6BFF36F8F704700BF30BFFFF718
:1002D400FDBF00BF0B4A08B50B4B22F07F029A60AA
:1002E400BFF34F8FBFF36F8FD3F8882022F47002CF
:1002F400C3F8882000F0B8FB00F0FAFB00F090F996
:1003040000F0BEFB0000000000ED00E01EF0040F52
:100314000CBFEFF30880EFF30980816911F8021C28
:100324000229FFD001B500F054FE01BD0446084681
:1003340011461A46002383F30B880A4B2025A3F5A4
:10034400806686F30B8883F3098863B64FF0000355
:1003540083F31188BFF36F8FA04785F31188BFF330
:100364006F8FFEE7E80C002001B5EFF30580A0F1E4
:1003740010004FEAC0000449014409C99847BDE888
:100384000140024908470000B8100000950300002E
:10039400704700BF154B9A6A12F0007F9A6A14BF27
:1003A4001E201D2012F0807F9A6A18BF1F2012F4AD
:1003B400801F9A6A18BF022012F4002F9A6A18BF8D
:1003C400212012F4802F9A6A18BF222012F4003FD1
:1003D4009A6A18BF232012F4803F9A6A18BF242017
:1003E4006FEA02426FEA12429A62704700ED00E03F
:1003F40010B5184B0246986A9C6A10F4805F14BFCB
:100404001720162014F4006F9C6A18BF1820A40546
:1004140008D5986A000404D51AB19A6A22F40042F5
:100424009A6219200B4B9A6A12F4806F9A6A18BF69
:100434001A20D2050CD49B6A13F4005F18BF1C2049
:10044400044A936A43F47F43936200230B7010BD04
:100454001B20F5E700ED00E010B51C4B0246986A3E
:100464009C6A10F0100F14BF1120102014F0080F14
:100474009C6A18BF1220A40709D5586B986A000615
:1004840004D51AB19A6A22F080029A6213200F4BA3
:100494009A6A12F0010F9A6A18BF142012F0200F02
:1004A4009A6A18BF1520D40658BF9B6A074B9A6AEC
:1004B400920642BF5A6A22F400525A629A6A42F081
:1004C400FF029A6200230B7010BD00BF00ED00E034
:1004D400F0B5474B04465B6800258BB0C3F30803B3
:1004E40085F31188BFF36F8F02F07F40B0F17F4F27
:1004F40011D102F00C0008280DD010074CBF0C4697
:1005040001250022033B8DF80720032B05D8DFE8E3
:1005140003F02462665F2C46F3E700239DF807206E
:10052400CAB902AE04F12007324620686168083473
:1005340003C2BC421646F7D1099A002D53D0C2F328
:10054400080121B96FEA52226FEA42220992184641
:1005540002A900F03CFD0BB0F0BD254BDA6A91070F
:10056400DBD4DA6A002AD8DBDA6A5200D5D55A69B4
:10057400A16942F480725A61BFF34F8FBFF36F8F4A
:100584005A6931F8021C22F480725A61BFF34F8F0A
:10059400BFF36F8F4DF60272914209D09A6AD2B2BC
:1005A40042B101200DF10701FFF756FF0346B5E7FD
:1005B4002368B3E79A6A12F47F4F05D001200DF146
:1005C4000701FFF715FFF1E79B6AB3F5803FA4D35A
:1005D400FFF7E0FEEAE700200DF10701E4E7002061
:1005E4000DF10701EDE722F4FF7222F00102ADE7FD
:1005F40000ED00E0044B5A6942F010025A615A6956
:1006040042F480625A61704700ED00E0EFF3088025
:10061400EFF3098101B57246FFF75AFF01BD00BF30
:10062400002320210348C2180133452B82F800130C
:10063400F9D1704700E100E0002080F31488BFF393
:100644006F8F002080F30A8880F30B88FFF722FE67
:1006540000200E490860BFF34F8F0D4880F30888CF
:1006640000F02CF8202080F311880A484FF4006130
:10067400401880F30988EFF314800221084380F3C3
:100684001488BFF36F8FFFF725FE000094ED00E0A0
:10069400E80C0020E8000020BFF34F8F0549064B0B
:1006A400CA6802F4E0621343CB60BFF34F8F00BF0C
:1006B400FDE700BF00ED00E00400FA0572B6002378
:1006C40083F313884FF0FF300C4A03F12001013308
:1006D400102B42F82100F8D100234FF0FF30074AD5
:1006E40003F160010133102B42F82100F8D162B606
:1006F400BFF34F8FBFF36F8F704700BF00E100E07F
:1007040008B50649064821F00701C1F1005202F577
:10071400E02200F0F0FB002008BD00BFFB0C00202D
:10072400E80C00201022174B70B5C3F840244FF496
:100734007F03D3F83021D3F83431072A1BD1023B8D
:10074400032B02D8104AD35CABB14FF050240126DE
:1007540000250520C4F81866C4F8145600F00AF9F8
:100764003046C4F8146600F005F9C4F81456C4F809
:100774001856002070BD4FF050230022C3F81426F1
:10078400F7E700BF00300050D81300004FF47F0398
:10079400D3F83021D3F83431072A05D1023B032B97
:1007A40002D8024AD05C7047002070470914000048
:1007B40008B5FFF7EBFF58B1644BD3F8202A3AB9D8
:1007C4000D21C3F8201A0121C3F81C19C3F81C29F0
:1007D4000022D30003F57F03D3F80013013107D0BF
:1007E400D3F800130132D3F80433202A0B60F0D17C
:1007F400FFF7CCFF002840F0A080FFF7C7FF40B10F
:10080400534B544AC3F830254FF050230122C3F808
:1008140058254FF47F03D3F83021D3F83431072A15
:1008240009D1023B032B06D84B4AD35C1BB10022EF
:100834004A4BC3F84C25FFF7A9FF50B14FF05023A2
:10084400D3F80024D10742BF0022C3F81421C3F80F
:1008540018214FF47F03D3F83021D3F83431072A19
:1008640009D14FF05023D3F80024D20744BF6FF0CE
:100874000102C3F80024FFF789FF18B16522334B46
:10088400C3F80C274FF47F03D3F83021D3F8343165
:10089400072A16D1314BD3F82034002B11DA4FF04C
:1008A40050230322C3F8182501229A60D3F80421A7
:1008B400002AFBD00022C3F804210122DA60C3F825
:1008C40018254FF47F03D3F83021D3F83431072AA5
:1008D40023D1023B032B02D8214AD35CEBB17E2205
:1008E4001A4B1B49C3F80C27C3F83C297F231D4A24
:1008F400C2F818310023C1F8043EC1F8083E01F5DE
:100904004821C1F81031C2F82431C2F82C3102F563
:10091400FF1202F58052C2F8A032134AD2F88C308A
:1009240043F44063C2F88C30104A114B1168C3F889
:100934004415D269C3F84C2508BD2922034BC3F8DA
:100944000C270322C3F83C2757E700BF00400050A0
:10095400009003504400EFBE051400000020035033
:10096400011400000020005000ED00E00080FF00B2
:100974000060005048B1054B054A1B68B3FBF2F315
:100984005843044B43F0010318477047000000200C
:1009940040420F001013000030B50468ACB1B4FA43
:1009A40084F30122C3F11F03DBB29A4024EA02025A
:1009B400D0E8EF5FA54204D1C0E8EC2FBCF1000FF2
:1009C400F6D1EAD102480B7030BD0248FCE700BF03
:1009D4000000AD0B0200AD0B014BC3F804057047DA
:1009E4000070015001460148FFF7D6BF0400002003
:1009F400104B70B553F82040013053F82060A642E4
:100A040000D870BDD4E9003595B153B12846984754
:100A140038B10028B8BF4042FF28A8BFFF20EB68C8
:100A24001870EA68537843F0010353700834E6E71A
:100A34009847FBE720130000012208B5084B032068
:100A44001A70FFF7D5FF00F002FB0420FFF7D0FF78
:100A5400FFF79AFB034A137B23F00103137308BDCA
:100A6400E40000206800002008B50348034A002180
:100A7400121A00F0E8FA08BD68000020E80000201F
:100A840008B50020FFF7B4FF164B03F5006282F3AC
:100A9400088883F30A880025E023134C84F8223065
:100AA400E57725766576A57684F82050636A43F465
:100AB400E023636284F82350FFF79CFDFFF7F2FB09
:100AC4004FF0FF33A362E36200F0C2FA0120FFF7A4
:100AD4008FFF0220FFF78CFF2B462A462946034846
:100AE400FFF724FCE800002000ED00E03D0A0000D0
:100AF40008B50648064A0749121A00F0A6FABDE8E6
:100B04000840054A0549064800F09FBA0000002045
:100B1400680000201C140000000000001C140000E9
:100B24000000002010B50A4C23681BB10123236088
:100B3400002010BD00F04EF80028F7D00138072837
:100B440003D8044B53F8200010BD034810BD00BF68
:100B5400CC00002038130000FE8FFFFFBFF34F8F3F
:100B64000549064BCA6802F4E0621343CB60BFF345
:100B74004F8F00BFFDE700BF00ED00E00400FA0561
:100B840030B44FF0FE3200250B4B0C4C0C49496835
:100B9400C3F80024C3F80424C3F80824C3F80C24BD
:100BA400C3F81024C3F81424C3F81824C3F81C246D
:100BB400C4F8005530BC08470050845000408450AD
:100BC40008000020024BD0E90012C3E9001270476C
:100BD4000800002008B500F011F830B900F010F852
:100BE40038B9054AC2F80C0A08BD00F037F80320EA
:100BF40008BD042008BD00BF005084500020704789
:100C040010B5114800F048F800B110BD0F4800F0CD
:100C140043F80028F9D10E4C204600F03DF8002896
:100C2400F3D10C4B0C481C6000F036F80146002848
:100C3400EBD100F02DF8044608B1204610BD00F0B9
:100C44003FF82046FAE700BF200000201C000020E7
:100C540018000020100000201400002008B50848E7
:100C640000F024F8074800F021F8074800F01EF8C7
:100C7400064800F01BF8BDE8084000F00BB800BFC0
:100C8400200000201C000020180000201400002078
:100C940000207047704700BF08B5034B02681B680B
:100CA40010689847002008BD3800002008B5034BA1
:100CB40002685B6810689847002008BD380000206F
:100CC40070B5094C094D2069AB68984718B1084BB9
:100CD40008485B6898470021074AEB68116020695F
:100CE400BDE87040184700BF2400002038000020F1
:100CF4000800002058130000D000002010B504465E
:100D040050B1636813F0685F05D0064A934202D07D
:100D140000236260236010BD034B04485B6898475E
:100D2400EFE700BF2C5F5CA90800002078130000E7
:100D3400C8B143680D4A934213D013F0685F0ED0D4
:100D4400012350E8002F194640E8001C9CF0000FD6
:100D5400F7D1012AF5D0BFF35F8F00207047044814
:100D64007047044870476FF4E04070472C5F5CA9FB
:100D7400E98FFFFFEA8FFFFF034680B1426809490C
:100D84008A420AD012F0685F05D0BFF35F8F002259
:100D940010461A60704704487047044870476FF45F
:100DA400E04070472C5F5CA9E98FFFFFEA8FFFFFEB
:100DB40010B5044620B10023034A2360626010BDCD
:100DC4000248FFF7DDFEF6E73A00003AA013000000
:100DD400704772B6002340F8103B8842FBD9BFF33A
:100DE4004F8F30BFFDE7836800EBC101B3F5004FBF
:100DF4002CBF51F8220031F81200704700EBC101FA
:100E04008068B0F5004F2CBF41F8223021F8123031
:100E14007047012208B5FFF7E6FFD04008BD83689C
:100E240000EBC101B3F5004F08D34B681AB143F08E
:100E340001034B60704723F00103FAE74B881AB1B2
:100E440043F001034B80704723F00103FAE753009A
:100E54000122FFF7D3BFB0F5004F34BF04230823AA
:100E6400481C0833A0EBD300B0FA80F0C0F11F0097
:100E740070472DE9F0410D4686680446FFF7C9FF27
:100E8400B6F5004F014601D3012832D03046FFF7B2
:100E9400E2FF04EB80010E6996B90122E368824007
:100EA4001343E36002220D612B4629462046FFF7D7
:100EB400A5FF032229462046BDE8F041FFF79EBF67
:100EC400022231462046FFF78EFF07460346294695
:100ED4002046FFF793FF0322334629462046FFF7B7
:100EE4008DFF39462B462046FFF788FF0222314604
:100EF400E1E7BDE8F081B2F5802F2CBF082304237D
:100F04002DE9F0410026D21A8C18CD1D25F00705D5
:100F140024F00704641BE408056021462046AC6005
:100F2400EE60FFF798FF421D9200013002F10707BF
:100F34004FEAD7073146A2F1100205F11000B8BFFD
:100F4400324600F093F83A4631462846FFF77FFFD1
:100F54003346324631462846FFF750FFA4EB0708D4
:100F6400284631460122FFF75AFF42463946FFF729
:100F74006EFF3B46324639462846FFF73FFF21467F
:100F84002846FFF764FF4346324621462846FFF7CA
:100F940035FF214628460122FFF741FF3946BDE8C7
:100FA400F041FFF766BF08B54FF02002EFF311835D
:100FB40082F31288BFF36F8FFFF76EFBFFF778F9A8
:100FC400FCE77047002008B5FFF7EDFF704700F01D
:100FD4002AB80146006800F026B800210120FFF776
:100FE400F6BF08B5FFF772F9BDE80840FFF7D0B9BE
:100FF400002008B5FFF750FBFFF794BD08B5FFF7D5
:101004004BF9FFF7E3FFBDE80840FFF78BBD40F065
:101014000040C1F88000704740F00040C1F88000F3
:101024007047FFF7DFBC10B54FF02003EFF31184D6
:1010340083F31288BFF36F8FFFF7DAFF84F311880D
:10104400BFF36F8F10BD00F011B800F002B8704705
:1010540070470A44431E914200D1704710B511F8FD
:10106400014B914203F8014FF9D110BD02440346EC
:0C107400934200D1704703F8011BF9E71C
:10108000DD0100000000000055010000000000002C
:10109000FD0F000000000000390200000000000009
:1010A0000507000000000000011000000000000023
:0810B000290700000000000008
:1010B80000000000DF0F000000000000DF0F00004C
:1010C80000000000DF0F000000000000DF0F00003C
:1010D80000000000DF0F000000000000DF0F00002C
:1010E80000000000DF0F000000000000DF0F00001C
:1010F80000000000DF0F000000000000DF0F00000C
:1011080000000000DF0F000000000000DF0F0000FB
:1011180000000000DF0F000000000000DF0F0000EB
:1011280000000000DF0F000000000000DF0F0000DB
:1011380000000000DF0F000000000000DF0F0000CB
:1011480000000000DF0F000000000000DF0F0000BB
:1011580000000000DF0F000000000000DF0F0000AB
:1011680000000000DF0F000000000000DF0F00009B
:1011780000000000DF0F000000000000DF0F00008B
:1011880000000000DF0F000000000000DF0F00007B
:1011980000000000DF0F000000000000DF0F00006B
:1011A80000000000DF0F000000000000DF0F00005B
:1011B80000000000DF0F000000000000DF0F00004B
:1011C80000000000DF0F000000000000DF0F00003B
:1011D80000000000DF0F000000000000DF0F00002B
:1011E80000000000DF0F000000000000DF0F00001B
:1011F80000000000DF0F000000000000DF0F00000B
:1012080000000000DF0F000000000000DF0F0000FA
:1012180000000000DF0F000000000000DF0F0000EA
:1012280000000000DF0F000000000000DF0F0000DA
:1012380000000000DF0F000000000000DF0F0000CA
:1012480000000000DF0F000000000000DF0F0000BA
:1012580000000000DF0F000000000000DF0F0000AA
:1012680000000000DF0F000000000000DF0F00009A
:1012780000000000DF0F000000000000DF0F00008A
:1012880000000000DF0F000000000000DF0F00007A
:1012980000000000DF0F000000000000DF0F00006A
:1012A80000000000DF0F000000000000DF0F00005A
:1012B80000000000DF0F000000000000DF0F00004A
:1012C80000000000DF0F000000000000DF0F00003A
:0812D80000000000DF0F000020
:1012E0000D14000000000000C31300000000000007
:1012F000F513000000000000DC13000000000000F7
:101300001714000000000000D413000000000000CB
:101310000338FDD87047000000000000C90F00002E
:10132000801000008010000098100000981000004D
:10133000B8100000B8100000FF8FFFFFFF8FFFFF05
:10134000FE8FFFFFFE8FFFFFFD8FFFFFFC8FFFFF74
:10135000FC8FFFFFFB8FFFFF436F756C64206E6F88
:1013600074206C6F636B20706F7765722073617689
:1013700065206D75746578006D757465785F66724B
:1013800065652063616C6C65642077697468204EC4
:10139000554C4C20706172616D657465720000007F
:1013A00043616E277420696E697469616C697A653E
:1013B000206D757465782C20776173204E554C4CE8
:1013C0000D0A0063627072696E74665F7061636BB0
:1013D00061676500736F6300000000016E7266351F
:1013E000333430646B5F6E7266353334305F6370F4
:1013F0007561707000666174616C5F6572726F72A6
:10140000000000000101010000010000004E5246F2
:0C141000585F44505049006F730000000A
:10141C000090D003FFFFFFFF00000000610B0000F5
:10142C0018000020340000202C0000202800002090
:10143C0024000020600000205800002050000020F4
:10144C000000000048000020B50D0000010D000058
:10145C00350D00007D0D0000D40000203A00003A4C
:10146C00D80000203A00003ADC0000203A00003A94
:08147C00E00000203A00003AF4
:0414840015E015E07A
:040000030000063DB6
:00000001FF
