:020000040100F9
:10000000E00F0021A9100001673E00017D100001F2
:100010007D1000017D1000017D1000010000000036
:10002000000000000000000000000000FD0C0001C6
:100030007D10000100000000950C00017D10000102
:10004000890D0001890D0001890D0001890D000154
:10005000890D0001890D0001890D0001890D000144
:10006000890D0001890D0001890D0001890D000134
:10007000890D0001890D0001890D0001890D000124
:10008000890D0001890D0001890D0001890D000114
:10009000890D0001890D0001890D0001890D000104
:1000A000890D0001890D0001890D0001890D0001F4
:0800B000890D0001890D00011A
:1000B80053B94AB9002908BF00281CBF4FF0FF31C7
:1000C8004FF0FF3000F00CB8ADF1080C6DE904CE2C
:1000D80000F008F8DDF804E0DDE9022304B0704719
:1000E800704700BF2DE9F04786468C460846089EB3
:1000F800154674461946002B40F0C1808542B2FA75
:1001080082F245D94AB1C2F1200300FA02FC9540B7
:1001180094402EFA03F343EA0C0C4FEA154EA8B2AA
:10012800230CBCFBFEF80EFB18CC08FB00F943EAD5
:100138000C43994528D9EB1808F1FF3704D29945A3
:1001480002D9A8F102072B44A3EB0903A4B2B3FB1D
:10015800FEFC0EFB1C330CFB00F044EA0344A042F7
:1001680014D92C190CF1FF3304D2A04202D9ACF1F6
:1001780002032C44241A43EA07401EB1D44000234A
:1001880034607360BDE8F0874746DDE76346F1E712
:1001980092BB431B01214FEA154EAFB2200CB3FBB3
:1001A800FEFC0EFB1C330CFB07F840EA03439845A2
:1001B80061D9EB180CF1FF3004D2984502D9ACF1A3
:1001C80002002B44A3EB0803A4B2B3FBFEFC0EFB16
:1001D8001C330CFB07F744EA0344A7424DD92C19FA
:1001E8000CF1FF3304D2A74202D9ACF102032C442C
:1001F800E41B43EA0040C0E7C2F120039540944065
:1002080020FA03F12EFA03F34FEA154E9040AFB2ED
:100218000343B1FBFEFC0EFB1C10190C0CFB07F88A
:1002280041EA0041884522D969180CF1FF3004D20F
:10023800884502D9ACF102002944A1EB08019BB220
:10024800B1FBFEFC0EFB1C110CFB07F743EA014354
:100258009F420ED9EB180CF1FF3104D29F4202D90C
:10026800ACF102012B44DB1B41EA004193E76046F5
:10027800E3E76146F7E76046A4E76346B8E78342E9
:1002880006D916B9002108467CE7C6E900E0F9E777
:10029800B3FA83F78FB9834201D3724508D8BEEB0E
:1002A800020460EB030301209C461EB9002169E7A4
:1002B8003846FAE7C6E9004CF8E7C7F1200CBB401E
:1002C8000EFA07F522FA0CF42EFA0CF1BA401C4388
:1002D80020FA0CF3B8404FEA144901431FFA84FE90
:1002E800B3FBF9F809FB18300B0C08FB0EFA43EACC
:1002F80000439A4540D9E31808F1FF3004D29A45E3
:1003080002D9A8F102002344A3EB0A0389B2B3FB84
:10031800F9F809FB183308FB0EFE41EA03418E4544
:100328002CD9611808F1FF3304D28E4502D9A8F1FF
:100338000203214443EA0040A1EB0E01A0FB02980E
:100348004145CE46434602D306D14D4504D2013835
:10035800B9EB020E68EB0403002EA7D0B5EB0E0232
:1003680061EB030101FA0CFC22FA07F3F9404CEAAD
:100378000303C6E9003199E74046C5E74346D9E794
:10038800012230B50F4B02FA01F40F4DC3F80445B2
:100398002C681F284FEA8403144494BF0022203895
:1003A800000203F1824340EA423003F5204341F062
:1003B800004140F00310C3F880102C60C3F810050A
:1003C80030BD00BF00F00041E001002110B5094B2D
:1003D8005A6800EA020420EA0200DC609860D3F858
:1003E800042301EA020021EA0201C3F80C03C3F85E
:1003F800081310BD00058C412023002270B5194E4A
:10040800194DB360194BAA60C3F84021184A194C1A
:100418001268C3F8402501221A602368782B18D186
:1004280080200021FFF7D2FF502201210020124B2B
:1004380022605960C3F8000103F5E0435960D960B0
:10044800C3F84025C3F8400119602023F360E86031
:1004580070BD4FF000700021FFF7B8FF226801322D
:10046800E3E700BF00058C4100088C410010014102
:10047800080000210400002100500041F8B50023C5
:100488004FF60D4405255A4E5A4FDFF86CC1C3F19B
:100498002000A3F1200126FA03F204FA00F0024337
:1004A80024FA01F10A4312F0010F03F1010209D005
:1004B8001F2B04D880334CF823501346E7E76033EA
:1004C80047F82350332A1346E1D1494B4A4D494C4A
:1004D800AB61EB604FF60D43A361E360474B00212E
:1004E8001A46D2E9006001310829AE6002F108021B
:1004F800A060F6D10022D3E900010132082AE860A1
:1005080003F10803E160F6D14FF000433C4F3D4E44
:10051800C7F8803100212B20C7F88060FFF730FF33
:100528000C22DFF8E4C03948394B3A49C7F894C17E
:10053800C7F89801C3F804250A68930001320A60D5
:1005480042F6037203F1824303F52043C3F8B0C0B7
:10055800C3F8E000C3F8102500221120114600F06E
:100568004BFB112000F02CFB01222B4B2B49C3F82D
:10057800002209681A20C3F840154FF48031C3F8E7
:100588000413C3F8441303211A60A3F5A043C3F866
:1005980008154FF00111C3F8001221490968C3F882
:1005A8004015C3F8C0610A211A60FFF7E9FE0B2164
:1005B8002020FFF7E5FE1B4A1B49136943F010038F
:1005C800136140220023AA60A36072B600BF00BF77
:1005D80020BF0868B0F1A53F06D000204FF40051B5
:1005E800FFF7F4FE00BFFDE762B6EA60E360EAE702
:1005F800F000000E00088C4100058C417845000190
:10060800005000410A0000800200008003000080C2
:1006180000F00041E0010021001001410800002124
:100628000400002100ED00E000000021014B1B68E0
:10063800184700BF0C00002130B585B004460D46B0
:1006480010220021684603F0AAFE02238DF802302A
:10065800044B2A4621466846019302F0B3FF05B0D1
:1006680030BD00BF3506000180B505460E46174669
:10067800984602F0E1FD034603F09AFE0446DFF8CF
:100688001890424649F8003039463046A84754F891
:10069800090000F06DFD00BF080000002DE9F047DB
:1006A800058B04462807904611D4022905F0070552
:1006B80040F0CD80204603F0BDFA78B10138218B97
:1006C800042811D8DFE800F0C3106D8595000129D2
:1006D8000CBF45F0100545F02005258388F31188E7
:1006E800BFF36F8FBDE8F08701F0070AAA4500F055
:1006F800A6800027B9463E46A368002B00F0BD80BF
:1007080041F00801218388F31188BFF36F8FA16836
:10071800002900F0BB800D68002900F0B78033463F
:1007280052462046D1F80480C047002D76D02B6869
:1007380029461D46F0E701F007035A1F012A1BD876
:10074800002221F00701062B276889B2C4E900229C
:1007580009D13B4603E0628B013262831B68002BA0
:10076800F9D141F002012046218303F063FA002801
:100778007BD041F0200177E0042B0AD121F007015A
:1007880089B22046218303F055FA10B141F02001C7
:100798002183218B01F0070AAA4550D00027B946CA
:1007A800AAE7236921F0070141F00601062DD3F8D5
:1007B800009021832DD1B9F1000F40D041F00801FC
:1007C800218388F31188BFF36F8F20463949C847C2
:1007D80029E021F00701236941F0040189B2042DC1
:1007E800D3F804902183E6D000274FF0040A3E4650
:1007F80082E721F00701236941F0050189B2052D3F
:10080800D3F808902183D6D000274FF0050A3E463A
:1008180072E700274FF0060A3E466DE72B4687E74A
:10082800B9F1000FD1D14FF02003EFF3118883F312
:100838001288BFF36F8F238B23F008032383258B44
:10084800EA062ED525F01003238305F0070566690F
:10085800218B002EBFF66FAF00232768C4E9003351
:1008680021F0070141F001012183218B4FF000099C
:1008780001F0070AAA457FF43FAF002F9BD041F053
:100888000801218388F31188BFF36F8F002FC7D029
:100898003D68394633465246204603F0F7F92F465D
:1008A800F4E7AB067FF51AAF25F02003238305F0A4
:1008B8000705FFE6C13C0001064AD2F8AC3123F037
:1008C8000043C2F8AC310022034BC3F84C21D3F8E3
:1008D8004C31704700200141006001410122024B68
:1008E8000020C3F840257047000008415023142217
:1008F80013B51F4C0DF10700C4F80C351D4BC3F898
:1009080020214FF400621C4BC3F8BC254FF48062D1
:10091800C3F8382503F0CFFB184B984225D1184966
:100928009DF8070003F0BDFB16499DF8070003F08A
:10093800BDFB15499DF8070003F0B3FB21469DF860
:10094800070003F0B3FB01209DF80730984001F041
:100958001BFB4FF4002200200C4BC3F84423C3F8C0
:100968004C01D3F84C3102B010BD6FF00B00FAE720
:1009780000B0004100302041002001410000AD0BD3
:100988004C610141282001412C21014100600141B5
:1009980073B5354BD3E84F3F00233449CDE90033D5
:1009A800334BD3F80445BFF35F8FD1F80465BFF329
:1009B8005F8FD3F804259442F3D16B462246012178
:1009C8002B4803F011FA324605460F21274801ABA0
:1009D80003F00AFAE0B1019B0DB9009302E0009A16
:1009E8009342FAD3009B22481C44013CD0F84C3572
:1009F80024F07F449C421F4932D0FFF75DFFC0F8C6
:100A08004C451D4B009A9A4218D901230B7001E0FE
:100A1800002DE7D1194AD2F8AC3143F00043C2F8AF
:100A2800AC31134BD3F84C2132B90121144A51602F
:100A3800D3F84C3103B1116001230DE0BFF35F8F90
:100A4800D0F80435E41A24F07F440E4B033C9C4252
:100A5800DBD900230B7000230B4A137002B070BD62
:100A68000B78002BF7D0D5E7DC02002100100141FC
:100A780000600141DA020021FEFF7F0000200141F1
:100A880000B00041FBFF7F00DB020021F8B51E49E2
:100A98000023C1E8423F52BB1C4B1D783DB30523E0
:100AA8001B4E1C4F34780134B4FBF3F303EB830380
:100AB800E41A03F0EFFA184A137823B157F82430F0
:100AC800C01A072813D9154BD3F8141141B10021C6
:100AD800C3F81411D3F8143134700CB9012313700E
:100AE800347803F0D7FA47F824002846F8BD0C4AB2
:100AF8000025D2F8AC3123F00043C2F8AC31012212
:100B0800084B5A60F1E700BFDC020021DB0200213C
:100B1800D9020021E4010021D8020021005000413F
:100B28000020014100B0004120B1034B800143F097
:100B380001031847704700BF7045000101F080B9F4
:100B4800014910220A60704710ED00E001B5FFF777
:100B58001FFFBDE8014072B6404080F31188BFF323
:100B68006F8F01B5FFF792FF002806D0BFF34F8FB4
:100B780030BF00BF00BF00BF00BFBDE8014062B684
:100B8800BFF36F8F704700BF01B5FFF701FFBDE8E6
:100B9800014072B6494081F3118801B5FFF776FF2D
:100BA800002806D0BFF34F8F20BF00BF00BF00BF93
:100BB80000BFBDE8014080F3118862B6704700BFEE
:100BC80040B2002807DB01234109034A00F01F0057
:100BD800834042F82130704700E100E0054B4209AC
:100BE80053F82220012300F01F0003FA00F0104000
:100BF800704700BF00E100E040B2002801F10101A8
:100C0800ACBF00F16040064B4FEA4111C9B2ABBF1F
:100C180000F5614000F00F0080F800131954704788
:100C280014ED00E030BFFFF7FDBF00BF08B5084B6B
:100C3800084A23F07F039360BFF34F8FBFF36F8F92
:100C480001F0C6FE02F05EFB00F01EFA01F00AFF9A
:100C58000000000100ED00E0094A0A4993680968AC
:100C68005867996708494B6843F080534B600023E5
:100C780083F31188BFF36F8F9368986F704700BF35
:100C8800A8020021A846000100ED00E016498A6884
:100C98004FF030001044EFF3098C80E8F01F20205B
:100CA80080F31288BFF36F8F104F4FF000664A69C8
:100CB8008A603E604FF07004141920680C4C206064
:100CC800506F0023536780F3118802F1300090E8D9
:100CD800F01F8CF3098802F1000004B503F0C6F890
:100CE800BDE8044070470000A802002104ED00E0C0
:100CF800F80100211EF0040F0CBFEFF30880EFF39A
:100D08000980816911F8021C0229FFD001B503F09E
:100D18009EF801BD42F8203C009B0B4942F81C3C60
:100D2800019B21F0010142F8183C029B42F8081C83
:100D380042F8143C4FF0807342F8043C0023203AF8
:100D480002654367704700BF710600010A4B046FD4
:100D580098600A4B1C60036E83F30B88104681F37E
:100D68000988002163B681F31188BFF36F8F0022D1
:100D78000023FFF779FC00BFA8020021F801002139
:100D880001B5EFF30580A0F110004FEAC000044957
:100D9800014409C99847BDE80140024908470000D5
:100DA800404400010D0E0001114B124A2DE9F0419B
:100DB800D518013DB5FBF3F5DFF83C805D430F4BDB
:100DC800074608EB0304013CB4FBF3F403FB0454AB
:100DD8000E1B30460A4903F0D5FA70194246002125
:100DE800083E03F0DCFA3E6704F10800BDE8F08134
:100DF80001000000000000000400000004000000E2
:100E080070450001044B99685869884203D003492A
:100E18004FF080520A607047A802002104ED00E0FC
:100E2800154B9A6A12F0007F9A6A14BF1E201D2083
:100E380012F0807F9A6A18BF1F2012F4801F9A6AE6
:100E480018BF022012F4002F9A6A18BF212012F44A
:100E5800802F9A6A18BF222012F4003F9A6A18BF9E
:100E6800232012F4803F9A6A18BF24206FEA0242B6
:100E78006FEA12429A62704700ED00E010B5164B17
:100E88009A6A9C6A12F4805F14BF1722162214F41F
:100E9800006F9C6A18BF1822A40509D59A6B9A6A34
:100EA800120404D518B19A6A22F400429A621922EF
:100EB800094B986A10F4806F986A18BF1A2210F4C8
:100EC800807F986A40F47F4098624FF000030CBF1F
:100ED80010461B200B7010BD00ED00E010B5154B3F
:100EE8000246986A9C6A10F0100F14BF1120102057
:100EF80014F0080F9C6A18BF1220A40709D5586B74
:100F0800986A000604D51AB19A6A22F080029A6299
:100F18001320084B9A6A12F0010F9A6A18BF14201E
:100F2800D20658BF9A6A9A6A42F0FF029A62002370
:100F38000B7010BD00ED00E0F0B5474B04465B6850
:100F480000258BB0C3F3080385F31188BFF36F8FB7
:100F580002F07F40B0F17F4F11D102F00C00082859
:100F68000DD010074CBF0C4601250022033B8DF81D
:100F78000720032B05D8DFE803F02462665F2C46C0
:100F8800F3E700239DF80720CAB902AE04F1200751
:100F9800324620686168083403C2BC421646F7D15D
:100FA800099A002D53D0C2F3080121B96FEA5222E1
:100FB8006FEA42220992184602A902F046FF0BB0D6
:100FC800F0BD254BDA6A9107DBD4DA6A002AD8DB50
:100FD800DA6A5200D5D55A69A16942F480725A6119
:100FE800BFF34F8FBFF36F8F5A6931F8021C22F499
:100FF80080725A61BFF34F8FBFF36F8F4DF6027245
:10100800914209D09A6AD2B242B101200DF107018A
:10101800FFF764FF0346B5E72368B3E79A6A12F45B
:101028007F4F05D001200DF10701FFF727FFF1E7FA
:101038009B6AB3F5803FA4D3FFF7F2FEEAE70020EE
:101048000DF10701E4E700200DF10701EDE722F4B7
:10105800FF7222F00102ADE700ED00E0044B5A698F
:1010680042F010025A615A6942F480625A6170472C
:1010780000ED00E0EFF30880EFF3098101B5724657
:10108800FFF75AFF01BD00BF002320210348C21803
:1010980001331E2B82F80013F9D1704700E100E0FC
:1010A800002080F31488BFF36F8F002080F30A8834
:1010B80080F30B88FFF742FD00200E490860BFF35C
:1010C8004F8F0D4880F3088800F02CF8202080F31B
:1010D80011880A484FF40061401880F30988EFF33B
:1010E80014800221084380F31488BFF36F8FFFF741
:1010F8009DFD000094ED00E0E00F0021E0020021DA
:10110800002318460649D1F89020C2F307229342DB
:1011180000DB7047C1F89830C1F8A0000133F6E74A
:1011280000ED00E010B572B6002484F31388FFF7D1
:10113800E7FF23464FF0FF300C4A03F1200101334B
:10114800102B42F82100F8D100234FF0FF30074A56
:1011580003F160010133102B42F82100F8D162B687
:10116800BFF34F8FBFF36F8F10BD00BF00E100E0EA
:10117800084B9B6883420BD1EFF3058343B1064BC1
:101188005A6842F080525A605A6A22F400425A62FF
:1011980002F058B8A802002100ED00E01FB5094C84
:1011A800094A23460121094800F0EAF8002303937D
:1011B800074B0121E41A01A80193029400F0EAF810
:1011C80004B010BD0000012100000021F845000115
:1011D800A000002110B50C7A0B6804F01F0223F060
:1011E8001F031A43CB68640923F01F03054943EA28
:1011F800440343F00103C1F89800C1F89C20C1F8EA
:10120800A03010BD00ED00E02DE9F04F0F46144668
:1012180006464FF000084E4D85B0B84580F29480E0
:10122800D6F80490B9F1000F36D0B9F11F0F40F28B
:10123800898019F01F0F40F08580D6F800A01AF0B9
:101248001F0F7FD1504602F015FE834609EB0A00B6
:10125800013802F00FFE834574D11BF1160F71D0CF
:101268005C456FDDC5F898B0D5F89C10C5F898B006
:10127800D5F8A03021F01F0143F01F0AD6E900324B
:101288001A44994202F1FF391ED1CA4508D13146A4
:101298005FFA8BF002F0F7FD08F101080C36BCE7A5
:1012A8003146C5F898B0D5F89C3022F01F0203F0FB
:1012B8001F031343C5F89C30E0B202F0E4FD10F1BF
:1012C800160F3FD0441CE7E7C5F898B0D5F8A02022
:1012D800013B23F01F0302F01F021343CA453146A6
:1012E800E0B2C5F8A030E8D002F0CDFD10F1160F3D
:1012F80028D0C5F898B0D5F89C209DF808300AF198
:10130800FF3A62F304038DF80830D5F8A0309DF851
:1013180008205B0863F347128DF80820D6E90032ED
:101328001344009323F01F03411C5344A3EB090308
:10133800C8B223F01F030728039303D86946FFF7B1
:1013480049FFBFE76FF01504204605B0BDE8F08FF0
:1013580000ED00E00522044BC3F89420BFF34F8F43
:10136800BFF36F8F704700BF00ED00E0BFF35F8FE2
:101378000022024BC3F89420704700BF00ED00E044
:1013880010B5034C2278FFF73FFF207010BD00BF57
:10139800DD0200212DE9F74F294D8A4606464FF018
:1013A8000008AB46274FD0451BDAD6F80490B9F1B0
:1013B800000F3FD031680846019102F05BFD0199AA
:1013C800044609EB0100013802F054FD84424FF055
:1013D80014021D4B08D002FB08F36FF015024BF8FE
:1013E800032003B0BDE8F08F14F1160F2C60F8D07D
:1013F8001978A142F5DD02FB08B0C7F89840C7F894
:101408009840D7F89C4000F10801007B64F3040081
:101418000871D7F8A0000C79400860F347140C71E4
:10142800D7F89C1021F01F016960D7F8A01021F0AF
:101438001F01296108F1010814350C36B3E700BF14
:10144800FC01002100ED00E0DD02002138B50E4D61
:101458002C68082C15D80020FFF788FF0B4B0C4A86
:10146800C3F8C020844205D10A4B00201C70FFF746
:1014780071FF38BD696801EB0011FFF7ABFE013061
:10148800F0E74FF0FF30F4E70446000100ED00E01C
:10149800AAFF4400DD02002108B50649064821F0EC
:1014A8000701C1F1045202F5803202F06BFB002003
:1014B80008BD00BFF30F0021E00F0021084B70B5F5
:1014C800C31A0D4607499B10044659434022064853
:1014D80002F012FD2B4601462046BDE87040184731
:1014E80024020021B76DDBB604440001402373B524
:1014F8000B4C0093041B0B460D460A49A41061438C
:101508000646094A094802F024FD011E05DA30465C
:101518002B4602B0BDE87040184702B070BD00BF4E
:1015280024020021B76DDBB6C73F00010444000167
:1015380070B50022012104460520FFF75DFB0F4826
:1015480000F080FD0E4B984215D100F08BFD266906
:101558000C49304602F0BEFB00280BDB0125356440
:101568002469084904F11C0002F0B4FB002801DBDF
:101578000020E56470BD6FF00400FBE7C5150001AD
:101588000000AD0B2C46000101460C2300224B4302
:1015980070B50848C41840331844D4E90E56A263FD
:1015A80002F097FC2DB132462B46BDE87040024848
:1015B800184770BD240200210444000110B101281D
:1015C80004D07047034B1B6C5B0701D1FFF7DCBFEE
:1015D800704700BF2402002108B54FF02003EFF345
:1015E800118183F31288BFF36F8F114A136843F098
:1015F80002001060DA0708D481F31188BFF36F8FF7
:10160800BDE80840012000F03FBD0A4BD3F80C2488
:10161800D3F80C34DB07EFD5074802F05AFC81F306
:101628001188BFF36F8FBDE808400020FFF7ACBFFB
:101638007402002100500041640200211FB50022FD
:101648000123CDE902236B46084ACDF800D0CDF836
:1016580004D002F0ADFC002805DB4FF480420023E3
:10166800684601F02BFB05B05DF804FBE53F00017F
:1016780010B54FF02003EFF3118483F31288BFF302
:101688006F8F074A136823F00201DB07116002D449
:10169800012002F012FD84F31188BFF36F8F10BD93
:1016A800740200212DE9F041012207463549D1E8AD
:1016B800EF3FC1E8E02F0028F9D133B93249334868
:1016C8004B60CB608A6002F018FB7B1E012B28D888
:1016D800012F06D12E4BD3F81C3403F00303022B41
:1016E8001FD002F058FD0546E8B92A4B1B78D3B144
:1016F80002220646264BC3F80823254CDFF89880BB
:10170800D4F81824D4F81834D20316D503F00303F8
:10171800022B01D0012F10D175B386F31188BFF3C6
:101728006F8FBDE8F0814FF02003EFF3118683F34C
:101738001288BFF36F8F0125DFE7C5B13046FFF789
:1017480023FAD4F81835DBB2012BD9D1D4F8042107
:10175800002AD5D00022C4F80421D4F8042102229A
:10176800C4F818252022C8F88021A360C8E7002102
:10177800212001F047FDE4E70222054BC3F80423CA
:10178800CFE700BF20020021100200214002002103
:1017980000500041DE02002100E100E030B5406861
:1017A80001F01F04057BB2F5001F85B044EA45141B
:1017B80005D1204600F078FF002005B030BD002597
:1017C800B2F5800FCDE9025514D1B3F1007F0CBFFB
:1017D800042305238DF8083000232046194602AA61
:1017E80000F080FD224B98423CD10121204600F0B8
:1017F8000FFFE1E7B3F1C06F27D0B3F1007F14BF4B
:10180800012302238DF80830836823FA01F111F0CF
:101818000101E1D1B2F1A07FDED104F01F0362091A
:1018280003F1800313D0012A1FD1124A52F8233042
:10183800DB07D1D40DF107052946204600F092FEBA
:101848000D4B984205D00395C6E70323DAE70B4A08
:10185800ECE7284600F0D6FE054B9842F3D06FF02F
:101868000B00AAE76FF01500A7E751F82330FFDE59
:101878000000AD0B00088C410400AD0B00058C4145
:1018880010B500F0AFFE044668B900F083FE084BBF
:1018980098420AD12146074800F05EFE22460521FB
:1018A8000A20FFF7A9F9002010BD6FF00400FBE73C
:1018B8000000AD0BC11800014209034670B502D003
:1018C800012A17D070BD0D4E326951680029F9D030
:1018D800012503F01F030C689D400029F2D08A6897
:1018E8002A4002D030464B6898472CB123682146DD
:1018F8001C46F2E7024EE7E72346F8E72C440001CE
:10190800184400012DE9FF41476801F01F053B7BA2
:10191800144645EA43150E4628460DF1070100F026
:1019280021FE14F4403F80460DD1284600F0E2FE27
:101938003C4B984503D19DF8070000F05DFE002060
:1019480004B0BDE8F08100232846194602AACDE973
:10195800023300F0C7FC334B984214D1804503D1C1
:101968009DF8070000F048FEA3034CD540F206336B
:101978002340B3F5837F1AD00DD8062B18D005D88D
:10198800B3B1022B32D06FF01500D9E7B3F5807FE1
:10199800F9D101230CE040F20222934228D0B3F59A
:1019A800407F27D0B3F5007FEDD1022300E0072365
:1019B8008DF8083084F48033C3F30043E0068DF8D3
:1019C80009304CBF0323C4F3401321038DF80A30B8
:1019D80012D501237A68B34093600022284602A9F1
:1019E80000F038FD0F4B9842A9D0CCE70423DFE77D
:1019F8000523DDE70323DBE7620341BF01237A68A0
:101A0800B340D360E9E7E3064FF000034CBF03247B
:101A1800C4F340141A46284602A98DF8084000F07D
:101A280061FCDFE70000AD0B0123834070B5DC43A8
:101A38000B4AD2E8EF1F01EA0405C2E8E65F002E70
:101A4800F7D14FF4803282400648C0F80823BFF32C
:101A58005F8FBFF36F8F0B4214BF0120002070BD52
:101A6800940200210060014170B40E4922F07F46C3
:101A7800D1E90034D01AC31844F10004C1E9003494
:101A8800A6F50013B3F5400F09D2074B1B681A0AD5
:101A98001B069C19054B42F10005C3E9004570BCC3
:101AA80001F006BDB000002198020021B800002115
:101AB800D9B101230D4A8340D2E8EFCF4CEA030C99
:101AC800C2E8E1CF0029F7D14FF48033084A8340B8
:101AD800C2F80433074BD3E8AF3FC340DB0742BF2C
:101AE8004FF48002044BC3F8002170479402002190
:101AF800006001419002002100E100E00D4B1868F0
:101B0800010A0006BFF35F8F0B4BD3F80435181892
:101B180041F10001B3F5801F0AD2084BD3E9002335
:101B2800904271EB030303D210F1807041F1000180
:101B3800704700BF9802002100600141B8000021F1
:101B48002DE9F04F85B016461F4604469DF840A083
:101B5800FFF76AFF0190FFF7D1FFB04271EB07036F
:101B680052D23B4B301A67EB0101984271F10001E8
:101B78004DD2384B03EB0413D3E902239F4208BF2D
:101B8800964258D04FF48038334908FA04F8204672
:101B980026F07F4BC1F8488302F070FA4FF0030932
:101BA800584604F15005AD00ADB205F1824504F583
:101BB800A87305F5B0350293029A20F07F4341F8E7
:101BC8002230C1F84483D1F80435244AC01A0338B6
:101BD80020F07F4090422ED9286868B1D1F80435AA
:101BE800A3EB0B0020F07F40B0F5000F039322D940
:101BF800204602F043FA039BBAF1000F07D109EB24
:101C0800030009F10109D7E7BAF1000F09D06FF015
:101C1800150520460199FFF74BFF284605B0BDE89A
:101C2800F08F01230E4AA340D2E8EF0F1843C2E811
:101C3800E10F0029F8D107490E982301C8500F9BDE
:101C480001EB04120025C2E902675360E1E700BF17
:101C580001008000A000002100600141FDFF7F001D
:101C6800900200217FB500254FF0FF304FF0FF3183
:101C7800194C1A4B0226C4F80833C4F84833184BD9
:101C8800C4F80855C3E902014FF480334FF48002C9
:101C9800C4F80433134B0121C4F804631620C3F8B5
:101CA80080212A46FEF7A8FF1620FEF789FF0123A8
:101CB8000D4AA360236013600C4B0D4A009328461D
:101CC8000023CDE90155FFF73BFF3046FFF7EAFC5B
:101CD800284604B070BD00BF0060014103000F003A
:101CE800A000002100E100E094020021711A000127
:101CF800FFFF7F002DE9F74302F0A5F82E4BD3F83C
:101D0800042390070BD5D3F8042142B10022C3F86D
:101D180004212A4AD3F80431136801331360264A90
:101D2800D2F80433D90327D5254BD3E8EF1F21F088
:101D38000100C3E8E40F002CF7D1CB0702D4D2F896
:101D48004031CBB100251C4CC4F84051D4F8403187
:101D5800FFF7D4FE4FF02003EFF3118283F31288CC
:101D6800BFF36F8F174BD3E90267B042B94106D270
:101D780082F31188BFF36F8F03B0BDE8F0834FF093
:101D8800FF38D3E900104FF0FF391D60C3E902891D
:101D98004FF48033C4F84833C4F84051D4F8403184
:101DA80082F31188BFF36F8F0029E5D00090324687
:101DB8003B4628468847DFE700600141980200213A
:101DC80090020021A00000211FB5431C22D0012849
:101DD80022DD124A124B9042D4BF04461C46FFF73C
:101DE8008DFE104B0E49D3E90023801AB0F5000F81
:101DF80028BF002404448C4228BF0C4600200A490E
:101E0800A218CDE90100009143F10003FFF798FE05
:101E180004B010BD024CE2E70124E0E7FEFF7F00BA
:101E2800FFFF7F00B0000021711A000108B5FFF71D
:101E380065FE024B1B68C01A08BD00BFB000002138
:101E48000022D30003F1FF7303F58033D3F80013A6
:101E5800013107D0D3F800130132D3F80433202A14
:101E68000B60EED1224BD3E94C32072B26D1023A34
:101E7800032A204B28D9D3F80024D10732D41C4B8D
:101E8800D3F83021072A19D1D3F83431023B032B78
:101E980002D8194AD35C8BB17F23184A1849C2F873
:101EA80018310023C1F8043EC1F8083EC2F82431B5
:101EB800C2F82C3102F57F22C2F81031114B1A6892
:101EC800114BC3F84425704710498A5C002AD2D0C8
:101ED800D3F80024D207CED50022C3F81421C3F8C2
:101EE8001821C8E76FF00102C3F80024C7E700BF54
:101EF8000000FF010050004125470001002000417B
:101F0800000008410080FF010060004129470001EE
:101F180030B50468ACB1B4FA84F30122C3F11F03ED
:101F2800DBB29A4024EA0202D0E8EF5FA54204D16E
:101F3800C0E8EC2FBCF1000FF6D1EAD102480B70D3
:101F480030BD0248FCE700BF0000AD0B0200AD0B3E
:101F580010B50368CB40DB0710D401238B4002681F
:101F680043EA0201D0E8EF4F944204D1C0E8EC1FE5
:101F7800BCF1000FF6D1F2D1014810BD0148FCE7D1
:101F88000000AD0B0400AD0B014BC3F8040570470E
:101F980000F00041F7B5044618B1012822D003B07B
:101FA800F0BD0222264B0646C3F80823C3F80401F5
:101FB800D3F804210122DA60012342F21075204F80
:101FC8008DF80730D4B1012CE9D1D7F80C3403F4DB
:101FD800803386BB002BE2D0012002F060F8013D7F
:101FE800F3D1DCE70022164B0DF10706C3F808030E
:101FF800C3F80021D3F800215860DDE7D7F818347A
:1020080003F480333EB9002BC9D0012002F047F811
:10201800013DF3D1C3E7D7F8182402F00302327068
:10202800002BBCD09DF807000128B8D102F037F882
:10203800013DC7D1B3E7D7F80C2402F00102EEE75F
:1020480000500041044B1A7922B9012218601A7114
:1020580002487047024870479C0200210000AD0BFF
:102068000C00AD0B08B50520FEF7B8FD10B905202A
:10207800FEF7A6FD0122034BC3F81825C3F8142563
:1020880008BD00BF0050004108B510B101282ED08E
:1020980008BD1C4AD2F81814D2F81834C90317D549
:1020A80003F00303022B05D0012B02D00020FFF719
:1020B80071FF0123134AC2F818350023C2F804310E
:1020C800D2F804310223C2F8043301239360DFE716
:1020D800D2F81434DB07ECD5D2F81C3403F0030330
:1020E800013B012BE2D80223C2F80433D0E70022D7
:1020F800044BC3F80021D3F80021C3F80403186087
:10210800C6E700BF0050004110B5164BD3F80021B8
:1021180052B10020C3F80001D3F800210122C3F80E
:102128000823114B1B6898470E4BD3F8042182B142
:102138000022C3F80421D3F80421D3F81824D3F8D3
:102148001824022102F00302012A03D1C3F818154A
:102158009A6010BDC3F80813034B0120BDE8104076
:102168001B681847005000419C02002101460148A5
:10217800FFF7CEBE10000021036803F01F025B09C1
:10218800026004D0012B034818BF002070470248A2
:10219800704700BF00088C4100058C41034A430981
:1021A800D35C00F01F001844C0B2704742470001DA
:1021B80008B5FFF7F3FF034B083033F81000C0F3FE
:1021C800401008BD1400002108B5FFF7E7FF034BD6
:1021D800083033F81000C0F3400008BD1400002197
:1021E80008B5FFF7DBFF034B083033F81000400B4E
:1021F80008BD00BF1400002170B50546FFF7CEFFEB
:102208000C4C083034F810300E46DA0508D5C3F304
:10221800432304EBC302284654F8333052689847E6
:10222800A3682BB131462846E268BDE870401847DC
:1022380070BD00BF1400002110B5FFF7AFFF124AB0
:10224800083032F81030D9051CD5C3F3432123F4E4
:10225800F85322F81030002002F10E0434F8023F3F
:1022680013F4807F03D0C3F3432399420AD001308B
:102278003028F3D1002342F831300448BDE810403B
:10228800FFF766BE10BD00BF1400002188000021C2
:1022980001460020F0B5012506460F4A0F4C02F111
:1022A8003F43A3F521439B0805FA03F3194204D0E1
:1022B800176817B11660176818430432A242EED1A6
:1022C800074BD3F87C2132B10022C3F87C21D3F824
:1022D8007C3140F00040F0BD00A1004120A1004148
:1022E80000A000412DE9FF41054690461E46FFF734
:1022F80055FF044609B32846FFF766FF18B128467C
:10230800FFF756FF28BB00230DF10F02CDE900337C
:102318008DF80E308DF80F3028460B460DF10E0162
:1023280001F0CDFE474A04F1080132F8113023F0DC
:10233800020343F0010322F81130B8F1000F32D044
:10234800284698F80070D8F80410FFF73DFF10B140
:10235800F1B13D4829E03B4804F1080C30F81C3045
:1023680023F02003DB04DB0C20F81C3081B1032FA1
:10237800EFD8D8F8042092F800E04FEA8E0202F174
:10238800824202F520429FB9C2F81075C2F8107552
:102398002C4A04F1080132F8113023F01C0343EAF7
:1023A800870322F811301EBB284804B0BDE8F0812D
:1023B800D2F8101543EA4E3321F00301C2F8101584
:1023C800D2F8101543F0200321F44F3121F4407165
:1023D800C2F81015D2F81085290201F47C5141EA9F
:1023E800080141EA0741C2F8101520F81C30CFE770
:1023F8002846D6E90076FFF71FFF002FD4D0114DED
:10240800D5E90023974201D19E4218D010480DF11A
:102418000F01FFF77DFD0D4B9842C6D19DF80F20A7
:1024280005EBC20308345E6035F8143045F83270A5
:1024380043EA422343F4807325F81430B4E70022BA
:10244800EEE700BF140000210400AD0B0000AD0B47
:10245800880000212DE9FF4104469046FFF79EFEC3
:10246800054631B32046FFF7AFFE20B92046FFF7F7
:102478009FFE002867D1354E05F1080736F817305A
:1024880013F01C0F02D04B78012B5CD001238DF880
:102498000F3000234A1CCDE9001320468B1C0DF198
:1024A8000F0101F00CFE36F8173043F0030326F84D
:1024B8001730B8F1000F03D1254804B0BDE8F0810A
:1024C8002046FFF781FE00283DD000231F4F05F16D
:1024D800080098F8002037F81050910025F02005E2
:1024E80001F18241ED0401F52041ED0CC1F81035F0
:1024F80027F81050C1F8103598F80160002EDBD08D
:10250800D1F8103598F802C023F4991323F4F8533E
:10251800C1F8103536042302D1F810E503F47C53D2
:1025280006F4403633434FEA0C5443EA0E0304F4EE
:10253800801445EA4235234345F02005C1F810359B
:1025480027F81050B8E70348B7E700BF1400002188
:102558000000AD0B0400AD0B014BC3E9020170474D
:102568001400002110B50446FFF722FE50B12046A2
:10257800FFF714FE044B083033F8103003485B0BA8
:102588000B7010BD0248FCE7140000210000AD0BE1
:102598000400AD0B70B50F4C94F87860BEB90E4DC1
:1025A8006022314604F1100001F0F9FE0A20C5F856
:1025B8007C61D5F87C31FEF703FB4FF00043C5F88A
:1025C80004330123054884F87830636770BD0448F4
:1025D800FCE700BF1400002100A000410000AD0B83
:1025E8000500AD0B034B93F87800003818BF0120A5
:1025F800704700BF1400002101460148FFF7A8BC3E
:102608008400002101460148FFF782BC84000021B4
:1026180037B50446FFF7CCFD00B32046FFF7D4FDDD
:102628000546D8B92046FFF7DBFD830003F1824257
:1026380002F5214203F18243156003F52043126835
:10264800D3F8102542F00102C3F8102521B1012367
:10265800134A8340C2F8043303B030BD2046FFF765
:102668009DFD104B083033F81030C3F38203042B60
:1026780011D0052B11D001A80194FFF77DFD019B16
:102688000169D94001F001010231204603B0BDE8DB
:10269800304001F05DBD0321F7E70221F5E700BFF7
:1026A80000A000411400002110B50446FFF780FD8A
:1026B800B8B12046FFF788FD98B92046FFF790FD8E
:1026C80001230B4A8340800000F18240C2F808339E
:1026D80000F52040D0F8103523F00303C0F810357A
:1026E80010BD2046BDE81040002101F031BD00BFFB
:1026F80000A0004173B50446FFF750FD1A4E00F1E3
:10270800080536F81530DB072BD52046FFF7CCFF38
:102718002046FFF74DFD60B12046FFF761FD00221E
:10272800830003F1824303F52043C3F81025C3F85F
:1027380010252046FFF780FD002301A826F8153054
:102748000194FFF719FD019B00EB8300D0F80022EC
:10275800064B134043F00203C0F80032044802B0AD
:1027680070BD0448FBE700BF14000021F0F0FCFF37
:102778000000AD0B0400AD0B2DE9F04F624B87B0A4
:10278800D3F80403C0B240F00040FFF781FD051EF6
:1027980080F29D80DFF874A1DFF87491DAF82030B8
:1027A8000493CAF82030D9F820300593C9F82030AE
:1027B8004FF0000B0DF11008564B5B4400934CE0B2
:1027C80093FAA3F3B3FA83F3009A0193147843EAD4
:1027D80044142046FFF7E2FC4F4B083033F81070E2
:1027E8000120019B0394DA0803F00703984018F8C6
:1027F8000230B90823EA000308F8023003A8FFF7FB
:10280800BBFC039BC7F38206803350F823304A078A
:102818003746C3F301432CD520463946DEB2FFF7CD
:10282800EBFC03A80394FFF7A7FC039B803350F845
:102838002330C3F301439E4207D10021204601F013
:1028480087FC3146204601F083FC03A80394FFF778
:1028580093FC0123039A93400362D8F80030002BBD
:10286800AED108F10408BBF1000F1DD14FF0010BE8
:10287800A2E7022B0CD10321204601F069FC06F0E7
:102888000503012BE1D139462046FFF7B5FCDCE70B
:1028980002212046019301F05BFC032EF3D0019B3B
:1028A800032BD2D1022EEDE74FF00040FFF7F0FCEA
:1028B800DAF820300493CAF82030D9F820201343DE
:1028C8000592C9F820207FF473AF25F00045012454
:1028D80015B907B0BDE8F08F95FAA5F3B3FA83F3FD
:1028E80004FA03F29B0003F1824303F52043D3F873
:1028F8001005D3F81015C0F30520C1F3014125EAEE
:102908000205FFF779FCE3E700A0004100058C41D0
:1029180000088C41524700011400002138B50346D5
:102928004FF02002EFF3118582F31288BFF36F8F07
:1029380001F03EFD064A1458184601F025FC85F3BF
:102948001188BFF36F8F2046BDE83840FEF710BCF2
:1029580008000000104B70B553F82040013053F8C0
:102968002060A64200D870BDD4E9003595B153B1B6
:102978002846984738B10028B8BF4042FF28A8BF6A
:10298800FF20EB681870EA68537843F0010353702E
:102998000834E6E79847FBE7AC460001012208B592
:1029A800094B03201A70FFF7D5FF00F005FE04203D
:1029B800FFF7D0FF00F002F9FDF760FD034A137B33
:1029C80023F00103137308BDDE020021400100213A
:1029D80008B50348034A0021121A01F0D8FB08BDC4
:1029E800A0000021E00200210023012270B586B07A
:1029F800CDE904230F220193CDE9023214230446C2
:102A0800124D134E03FB0055124906EBC016124B2C
:102A180001EB00214FF480723046009500F090F8E9
:102A2800737B2C7423F0040373730C4B013403EB96
:102A3800C4236B600A4BEE60D3E8EF1F0131C3E893
:102A4800E21F002AF8D106B070BD00BFA80200211D
:102A5800C0000021E00A0021AB410001E002002192
:102A6800A402002180B50020A6B0FFF773FF2D4B0C
:102A780003F5006282F3088883F30A880024E023C0
:102A8800294D2A4E85F82230EC772C766C76AC7678
:102A980085F820406B6A264F43F4E0236B6285F883
:102AA8002340FEF7DBFAFEF74BF84FF0FF33AB623B
:102AB800EB62FEF7CBFCFEF771FB40F20113ADF8B9
:102AC800243006ABB360CDE91E44219401F031FCFB
:102AD8000120FFF73FFF0220164DFFF73BFF00F0F4
:102AE80007FB154B75610593012314494FF4806268
:102AF800CDE9033328463B46CDE90144009400F074
:102B08001FF806466A7B284622F004026A7301F021
:102B18008EFB2046FFF768FF3A4631462846FEF707
:102B280015F900BFE002002100ED00E0A802002135
:102B3800A52900014001002160470001E00B0021A8
:102B48002DE9F043984685B000F15803C0E91633E3
:102B5800109B002603730423073222F007054373F2
:102B68000F9B01EB05090F4683734946C0E90666CA
:102B78008660C6730446FEF717F90E9B073020F0EF
:102B88000700A066C4E9187502930D9BA9EB00091C
:102B980001930C9B4A460093394643462046FEF76C
:102BA800B9F8054B66659B6803B1DB6E4846E3667A
:102BB80005B0BDE8F08300BFA80200212DE9F0436D
:102BC800294C2A4D87B02646AE4204F12C040FD377
:102BD80000F05EFA4FF4004640F2E737224CDFF887
:102BE8009090AC4220D307B0BDE8F04300F064BA3F
:102BF80054F8043C059354F80C3C049354F8103CE6
:102C0800039354F8143C029354F8183C019354F875
:102C18001C3C009354E9092354E90B01FFF790FF8A
:102C280054F82C3C5E65CEE7636A5A1C0DD000212F
:102C3800384623EAE373C3FB060151EAC333D4F8E9
:102C4800008004D1404600F0D3F92C34C9E74FF492
:102C58007A720023FDF72CFA02460B4608F1180099
:102C6800494600F0AFFBF0E7304500013045000170
:102C78009B42000138B504464FF02003EFF311855D
:102C880083F31288BFF36F8F01F007FB48B100226E
:102C9800826701F0CCFA2946BDE83840064800F0C2
:102CA80095B9D4E902329A4218BF0133A36085F37B
:102CB8001188BFF36F8F38BDDF02002113B54FF0C5
:102CC8002004EFF3118184F31288BFF36F8F8468B7
:102CD80044B1013C846081F31188BFF36F8F0020F9
:102CE80002B010BD52EA030406D181F31188BFF384
:102CF8006F8F6FF00F00F3E7CDE90023024602481B
:102D080000F046F9ECE700BFDF020021C3897F2B02
:102D180012D80A4B1B6863B1094B90F90E201B6847
:102D28009A4209DB437BDB0606D1064BC31A18BF60
:102D3800012303F0010070470023FAE7D0020021C5
:102D4800CC020021C00000210122044BC01A044B10
:102D5800C0105843034B1A54704700BFC0010021EC
:102D6800ABAAAAAADF02002170B50E4B0E4C1E7C3E
:102D7800182303FB06440546204601F0C0FA00224A
:102D88000A4B28469A55FFF7C1FF48B1084B204621
:102D9800BDE870401A680749013AD31700F012BB22
:102DA80070BD00BFA8020021C0010021DF02002180
:102DB800D0020021512D000138B50D4D2B4653F896
:102DC800184F9C4200D004B9EC68AB6838B95A7BFC
:102DD800D20604D1A26912B9DA897F2A05D89C42A1
:102DE80002D02046FFF7C0FF23466B6138BD00BF05
:102DF800A802002170B590F90D200146002A437BF6
:102E080004DA03F07F03437301F0D7F9154A4B7BCB
:102E1800104663F07F034B7350F8183FD469834220
:102E280008BF002323B9C1E900042160D1610CE087
:102E380091F90E5093F90E60B5420ED0AE420CDDFA
:102E48005868C1E90030016059609068BDE8704079
:102E5800431A58425841FFF7AFBF9C42E3D01B6862
:102E6800E0E700BFA802002170B490F90D30427B62
:102E7800002B29DBD30627D183692BBB134962F0CA
:102E88007F0242730A4652F8184F944218BF2346ED
:102E9800CC6923B9C0E900242060C8610CE090F92E
:102EA8000E5093F90E60B5420AD0AE4208DD5A685A
:102EB800C0E9003210605860002070BCFFF77CBF8A
:102EC800A342E7D01B68E4E770BC7047A802002162
:102ED80008B590F90D200146002A437B04DA03F077
:102EE8007F03437301F069F9044B9868431A584209
:102EF8005841BDE80840FFF75FBF00BFA8020021A6
:102F080070B515461C46064601F069F9B4F1FF3F55
:102F180008BFB5F1FF3F08D02A46234606F118003E
:102F28000249BDE8704000F04DBA70BD9B420001F7
:102F380038B54FF02003EFF3118583F31288BFF300
:102F48006F8F104B104A9C681068A04206D1FFF79B
:102F58000BFF85F31188BFF36F8F38BD00211B7CF1
:102F680011600A4AD35C002BF3D02046FFF7CEFE4F
:102F78000028EED0637BDB0602D12046FFF73AFF3C
:102F88002046E4E7A8020021C8020021DF02002150
:102F980070B50C480C4D86680C462E601146DDE96C
:102FA80004234FF02006EFF3118586F31288BFF350
:102FB8006F8F8068FFF7A4FF2046BDE87040FDF7DB
:102FC8004BBE00BFA8020021C802002149B9EFF397
:102FD800058030B9054B5A699B689A4201D0FDF7C4
:102FE8003BBE81F31188BFF36F8F7047A8020021A1
:102FF80010B54FF02002EFF3118482F31288BFF36B
:103008006F8F427B510704D484F31188BFF36F8F0D
:1030180010BD22F004024273FFF726FF2146BDE8E7
:1030280010400148FFF7D2BFE002002170B5044606
:10303800183001F064F94FF02003EFF3118683F3A1
:103048001288BFF36F8F94F90D20637B002A05DA8D
:1030580003F07F032046637301F0AFF80B4D637BE9
:10306800A86843F010036373031B58425841FFF7E5
:10307800A3FE86F31188BFF36F8FAB68A34203D119
:10308800BDE8704001F031B970BD00BFA802002151
:103098004FF02003EFF3118183F31288BFF36F8F92
:1030A800044B9A68D37B013BD37381F31188BFF338
:1030B8006F8F7047A802002110B54FF02003EFF37F
:1030C800118483F31288BFF36F8F084B00209A682E
:1030D800D37B0133D373FFF76FFE84F31188BFF3FB
:1030E8006F8FBDE8104001F000B900BFA8020021B1
:1030F800024B03F11802C3E906227047A802002117
:10310800F8B54FF02003EFF3118583F31288BFF36E
:103118006F8F19498868437B03F07F03437301F07D
:103128004CF808468B685A7B62F07F025A7350F855
:10313800182FCC69824208BF002222B9C3E90004D3
:103148002360CB610CE093F90E6092F90E70BE42D9
:103158000ED0B7420CDD5168C3E900210B60536003
:103168000120FFF729FE2846BDE8F840FDF774BDA9
:10317800A242E3D01268E0E7A802002150EA010366
:103188002DE9F04105460E4603D1FFF7B9FF0020AF
:103198002CE0831C71F1FF332ADB01F0C6F82C18F0
:1031A8004FF02003EFF3118883F31288BFF36F8F7A
:1031B800114F124BB8681860FFF78AFEB8681049BB
:1031C8002A463346183000F0FDF8BA684046537B6B
:1031D80043F010035373FDF73FFD01F0A6F8201AE2
:1031E80063EB0303012873F10003D0DBBDE8F08132
:1031F8006FF00104241AD3E7A8020021C8020021B5
:103208009B420001B1F1FF3F08BFB0F1FF3F08B595
:1032180006D1084B9868FFF709FF4FF0FF3008BD4B
:10322800FFF7ACFF4FF47A7380FB0303C00B40EA4F
:103238004340F4E7A8020021014B9868704700BF9B
:10324800A80200212DE9F04104464FF02003EFF3D6
:10325800118683F31288BFF36F8F037BD9070BD5D1
:1032680086F31188BFF36F8F404080F311884FF0C9
:10327800040002DFBDE8F081437B1A0704D586F31A
:103288001188BFF36F8FF5E723F0200242F00801A1
:10329800D20920D14173A36813B1204600F095FFED
:1032A80004F1180001F02BF84FF0000804F158075A
:1032B800A56DBD4200D0B5B90120FFF77DFD104BCB
:1032C8009B68A342DBD1EFF30583002BD7D13046AF
:1032D800FDF7C2FCD3E703F05F0343F00803437331
:1032E80000F06BFFD7E7284600F06FFF05F11800E4
:1032F80001F005F82846C5F87880FFF7B5FDD7E74F
:10330800A802002108B50648064A0749121A00F023
:1033180040FFBDE80840054A0549064800F039BFA6
:10332800000000219E000021A047000100000000CD
:10333800A047000100000021034B1B680BB9FEF7F2
:1033480075BD0020704700BFD402002110B50E4B98
:103358001C689C4204D1FFF7EFFF6FF0004010BDDE
:10336800FFF7EAFF002CF8D0D4E904321B1A62EB0D
:10337800E072B3F1004F72F10001EEDA002AACBF3F
:1033880018460020EBE700BF9000002130B570B16F
:103398000B4B5B6898420AD0036843B1D3E9042118
:1033A800D0E90445121941EB0501C3E90421D0E92C
:1033B800003213605A600023C0E9003330BD00BFFB
:1033C80090000021B3F1FF3F08BFB2F1FF3FF8B50D
:1033D80004461D4616465CD081604FF02003EFF38B
:1033E800118783F31288BFF36F8F013275F1FF33B2
:1033F80024DA6FF001032C49D1E900209B1A4FF021
:10340800FF3262EB00009E1B60EB0500012E70F19D
:10341800000301DA01260020C4E90460234ED6F82F
:1034280000C07568B44508BF4FF0000CBCF1000F30
:103438000DD1C4E900652C6074601CE0FFF77CFFC7
:10344800013645F10005361845EBE070E4E7DCE9A4
:103458000420D4E90431934271EB000E1ADAD21A2F
:10346800DCF8043060EB0100CCE90420C4E900C3B7
:103478001C60CCF804403368B34206D09C4204D1A7
:10348800FFF764FF0021FEF79FFC87F31188BFF365
:103498006F8FF8BD9B1A61EB0001AC45C4E904319C
:1034A800C7D0DCF800C0C1E7D80100219000002196
:1034B8002DE9F84F4FF02003EFF3118C83F31288B6
:1034C800BFF36F8FDFF8B0A0DFF8B0900024C9F821
:1034D8000000DAF800000025504508BF0020284FFA
:1034E800E046D7E90021D9F8003080B3D0E9046C70
:1034F8004FEAE37EB3427EEB0C0B05DAF61A6CEB6F
:103508000E04C0E9046422E0B21841EBE671C0E998
:103518000445C7E90021FFF739FF88F31188BFF395
:103528006F8F836898474FF02003EFF3118883F378
:103538001288BFF36F8FD9F80030DAF800009B1BB0
:103548005045C446C9F80030CAD1D7E90021002443
:103558009A1841EBE373C7E90023C9F80040FFF765
:10356800F5FE2146FEF730FC88F31188BFF36F8F14
:10357800BDE8F84FFFF7DCBC90000021D402002121
:10358800D801002110B54FF02003EFF3118483F325
:103598001288BFF36F8FFFF7CFFE0346054AD2E9C3
:1035A8000001181841EBE37184F31188BFF36F8FA2
:1035B80010BD00BFD8010021014800F04EBA00BF7D
:1035C800684700012DE9F04F43688BB082461446E6
:1035D800019383789F0740F10B81002591F80080C3
:1035E800B8F1000F00F00681B8F1250F0BD04B1C85
:1035F8000293013551464046019B98470028C0F286
:10360800F7800299EAE791F801808B1CB8F1250F41
:103618000293EED0002399461F461F2F2ED8A8F1FB
:103628002002102A0AD8DFE802F020090926090931
:1036380009160909091E092309091400A8F130020D
:10364800D2B2092A28D80A2147F0200701FB092904
:1036580001E047F00107029A12F8018B0292B8F1D3
:10366800000FDAD13FE047F0020747F00407F2E71E
:1036780047F00807EFE747F01007ECE77F2F25D85A
:10368800A8F13001C9B2092906D87E060A46DAD55A
:103698000A2202FB0313DEE7B8F12A0F0DD17806E0
:1036A80054F8042B59D4002AA7BF47F020079146A5
:1036B800C2F1000947F02807CDE7B8F12E0F05D170
:1036C800790600F1978047F04007C4E7B8F16C0F1E
:1036D80032D02AD8B8F1680F35D0B8F16A0F39D08E
:1036E800B8F14C0F36D0002B48F02002B8BF27F0B5
:1036F8004007A2F16501BCBF0023BFB2022901D96E
:10370800612A2CD107344FF007089A4E24F0070499
:103718000834380763D506EB080B37465F4560D198
:10372800AE1BA9EB0809374454E1B8F1740F92D0E5
:10373800B8F17A0F8FD0D6E73A0648BF47F400773A
:1037480047F0800787E7FE0548BF47F4007747F44E
:10375800807780E747F420777DE713467BE7A8F179
:103768006301122900F2CF80DFE811F0130048004E
:10377800CD00CD00CD00CD004800CD00CD00CD005E
:10378800CD00CD00DF00C700CD00CD001B00CD006F
:10379800960054F8043B4FF0010807AE8DF81C3032
:1037A800B7E754F8046B744A002E08BF164617F0A2
:1037B800400F304614BF19464FF0FF3100F0BAFDF4
:1037C8008046A6E751462020019B984700280FDB3A
:1037D800013FB845F6D34D44B946ED1B9BE74F462C
:1037E800F7E7514617F8010B019B9847002895DA2F
:1037F8004FF0FF3528460BB0BDE8F08F390637D5B6
:10380800BA0549BF073454F8040B24F0070454F8E8
:10381800080B27F010060028B6B232DA404246F408
:10382800806607AF0A220393394600F08FFD7206BF
:10383800A0EB0707039B4BD526F00101BB4289B2D9
:1038480040F38A80B8F1000F00F0828016F0100271
:10385800039240F083809B460E4640F2064116EAEA
:10386800010203921EBF00220BF1010B039238E004
:10387800FE0554F8040BCCD5B9054CBF40B200B2D4
:10388800C7E7CED17A06CCD5002BCAD127F01107CD
:10389800BEB21F469B46E0E727F010070A22BFB2D8
:1038A8003E0646D5B80549BF073454F8040B24F042
:1038B800070454F8080B002844D127F016067906A7
:1038C800B6B242D5002B40D127F01707BEB21F462B
:1038D80016F0100203924AD0B8F1000F45D107F153
:1038E800010B31075CD4F20705D5D94575DDA9EB85
:1038F8000B02CB46D3195A464CE047F0100710226A
:103908004FF07808CCE7782A06D1B8F1580F14BFE1
:1039180010224FF40472C3E751462520019B9847B3
:103928000028FFF665AF023564E608224FF000086C
:10393800B6E7F90554F8040BBDD5BE054CBFC0B2B7
:1039480080B2B8E727F00607BEB207AF03936BE76C
:1039580026F01106B6B29DE70E46B9E738460E4680
:103968001F4607F1020B0746BBE73846F9E7BB4697
:1039780073E700BF9747000190470001CDE9043283
:1039880051462020019B98470028FFF631AF059A41
:10399800049B01329145F1DCA5EB0B0193468D1890
:1039A800039A32B3039351463020019B984700286D
:1039B800FFF61EAF039BB8F1000F10D10135EE18CA
:1039C800711B8F4227DB3E460DF11C085EBB2F445E
:1039D800A9EB0B093D46B94436E03B468BE7023577
:1039E800514640460393019B98470028039BE6DA1B
:1039F800FEE640F206410E42E1D016F0020F05F154
:103A080001055146039314BF2B20202016F4806F24
:103A180018BF2D20E7E751463020019B0135984714
:103A28000028CDDAE4E6013E5146019B18F806006D
:103A380098470028CADADBE651462020019B013569
:103A480098470028FFF6D4AEA9EB0503002BF3DC5A
:103A5800D7E500BF7047002070470FB407B504A929
:103A680051F8040B0191FCF7E7FD03B05DF804EB96
:103A780004B07047836800EBC101B3F5004F2CBF59
:103A880051F8220031F81200704700EBC10180683C
:103A9800B0F5004F2CBF41F8223021F812307047A2
:103AA800012208B5FFF7E6FFD04008BD836800EBA8
:103AB800C101B3F5004F08D34B681AB143F00103B5
:103AC8004B60704723F00103FAE74B881AB143F0C3
:103AD80001034B80704723F00103FAE753000122EA
:103AE800FFF7D3BFB0F5004F34BF04230823481CA9
:103AF8000833A0EBD300B0FA80F0C0F11F00704784
:103B08002DE9F0410D4686680446FFF7C9FFB6F572
:103B1800004F014601D3012832D03046FFF7E2FFBB
:103B280004EB80010E6996B90122E36882401343D1
:103B3800E36002220D612B4629462046FFF7A5FFC8
:103B4800032229462046BDE8F041FFF79EBF022226
:103B580031462046FFF78EFF074603462946204692
:103B6800FFF793FF0322334629462046FFF78DFFD0
:103B780039462B462046FFF788FF02223146E1E707
:103B8800BDE8F081B2F5802F2CBF082304232DE96E
:103B9800F0410026D21A8C18CD1D25F0070524F017
:103BA8000704641BE408056021462046AC60EE600B
:103BB800FFF798FF421D9200013002F107074FEA14
:103BC800D7073146A2F1100205F11000B8BF3246FE
:103BD80000F0E5FB3A4631462846FFF77FFF3346BB
:103BE800324631462846FFF750FFA4EB070828461F
:103BF80031460122FFF75AFF42463946FFF76EFF6A
:103C08003B46324639462846FFF73FFF21462846BD
:103C1800FFF764FF4346324621462846FFF735FF43
:103C2800214628460122FFF741FF3946BDE8F04109
:103C3800FFF766BF038B13F0070305D10368002B5A
:103C48000CBF002003207047022B05D1408BB0FA2F
:103C580080F0400980007047012B05D10368002BD4
:103C68000CBF0020052070470020704710B50C4697
:103C780000B111B96FF0150010BD081D00F095F8DE
:103C88000028F9D1A368032BF6D9F3E72DE9F04111
:103C98000D4607461946281D90461E4600F096F820
:103CA800044638B13346424629463846A446BDE85C
:103CB800F0416047BDE8F08110B44FF02004EFF305
:103CC800118284F31288BFF36F8F416110BC012108
:103CD800FCF7E4BC38B50C46054658B151B10B6841
:103CE80043B14B6833B11C22002100F058FB00207F
:103CF8002C6138BD6FF01500FBE770B505460E4620
:103D0800FFF7B4FF041E15DB4FF02003EFF3118219
:103D180083F31288BFF36F8F4FF6FF716B8B2C8B79
:103D28008B4204F0070407D182F31188BFF36F8F29
:103D38006FF00A04204670BD022C0CD101336B834E
:103D480082F31188BFF36F8F00232246314628463D
:103D5800FFF79CFFEEE7062C14D8DFE804F0041305
:103D68001313041A0400002333606B683BB9C5E9D8
:103D78000066ACB902212846FCF790FCDAE71E6021
:103D88006E60F6E782F31188BFF36F8F6FF004045B
:103D9800D0E782F31188BFF36F8F6FF08504C9E70E
:103DA80082F31188BFF36F8FC4E7034658B14268A6
:103DB80002F00302012A03D0032A04D1026812B1D7
:103DC8000020986070476FF01500704742680346FE
:103DD80002F00302032A4FF00002816014BF10466C
:103DE80000685A6070477047F0B5D0F8047306460B
:103DF80017F002001CBFC2F1807018604FF0000578
:103E080018BF01204FF0010C4FF4803E0CFA05F466
:103E18000C4214D00EFA05F43C4210D005F5A874F3
:103E280056F82440A41A34F07F4408BF4FF0807439
:103E380008B91C6002E01868A042FAD801200135D0
:103E4800042DE3D1F0BDFCF737BDFEF767BD014691
:103E58000068FEF763BD00210120FFF7F6BF08B533
:103E6800FCF7E0FEBDE80840FCF7CCBF036E83F327
:103E78000B88704740E800F313F4803FD8B208BFBE
:103E88006FF0150070477FB50A894E890B684D6839
:103E980002F01F0242EA461200938DF8082023F030
:103EA8001F036A1E134423F01F030728039304D833
:103EB8006946FDF78FF904B070BD6FF01500FAE799
:103EC8000C220369C9B201FB0233186C00F0070029
:103ED80070474FF02003EFF3118283F31288BFF38A
:103EE8006F8F036803F0C00343F00203036082F39B
:103EF8001188BFF36F8F704770B5C9B203694FF06F
:103F08002004EFF3118584F31288BFF36F8F0C261A
:103F180006FB0134246C14F0C00408D0A24206D079
:103F280085F31188BFF36F8F4FF0FF3070BD01220A
:103F380006FB01331A6485F31188BFF36F8F43685A
:103F480003EBC1035B6898470020EFE78022FFF787
:103F5800D3BFF8B5069F0469C9B24FF02005EFF347
:103F6800118685F31288BFF36F8F0C2505FB01447A
:103F7800256C05F0070CBCF1010F0CD1276486F302
:103F88001188BFF36F8FC4E90E23436853F83130AB
:103F980098470020F8BD05F0C005AF4286F31188A8
:103FA800BFF36F8F0CBF6FF077004FF0FF30F1E772
:103FB80013B580240094FFF7CCFF02B010BD10B4F5
:103FC8001C240069CBB203FB0400002110BC10477D
:103FD8000020FEF759B8002000F06FB81046FEF731
:103FE80049BE436800205B681B690B6070474368E3
:103FF80002EA01005B6821EA020198600020D960AA
:104008007047436800205B689960704743680020E8
:104018005B68D960704743685A68536821EA0300AF
:104028000B4090600020D360704710B50369586852
:10403800F8B1884219D19C680868A142586000D13B
:104048009860002008602AB15A680A609A68596026
:1040580002B99960002010E0814206D1086820600A
:1040680098688142EDD19C60EBE70446006800281F
:10407800F2D1002AE8D16FF0150010BD002200F13E
:1040880050039B009BB203F1824303F5B0331A60DF
:104098001B68704708B5FDF731FD08BD004700F003
:1040A80066B840F00040C1F88000704740F000401A
:1040B800C1F880007047FEF759B8FDF76BBFF7B538
:1040C8001646DDE90847019001A81D46FEF754F899
:1040D800019BB6F1000C18BF4FF0010C00EB8300F8
:1040E8000B1E18BF0123002D43EA4C0314BF4FF0E9
:1040F8000C0C4FF0000C002C43EA0C0314BF4FF4D7
:10410800706C4FF0000C002F43EA0C0314BF4FF4FF
:10411800403C4FF0000CD0F8002243EA0C0322EA9E
:10412800030301B109780EB13678760019430DB151
:104138002D78AD0031430CB12478240229430FB106
:104148003F783F040C433C43C0F8004203B0F0BD45
:104158001FB50DF10F03019300238DF80F101A46B8
:1041680019460093FFF7ABFF05B05DF804FB08B1F3
:10417800FCF7DABC70474FF02002EFF3118382F3AB
:104188001288BFF36F8FFEE708B5FFF7F4FF00F062
:1041980006B900F0F7B8EFF30580003818BF012022
:1041A800704708B54FF02002EFF3118382F31288AD
:1041B800BFF36F8FFCF7CAFCF4E7D0E90032136055
:1041C8005A600023C0E90033704708B5FFF7F5FFD0
:1041D800437B23F0020343730023836008BD38B593
:1041E80004460D46FEF774FE637B43F002036373D7
:1041F800E5B1A5602B689D4209D16B68C4E90053FD
:104208001C606C6012E06A689342F6D01B68002B51
:10421800F3D094F90E2093F90E108A42F3D091420C
:10422800F1DD5A68C4E9003214605C6038BD10B52D
:104238004FF02003EFF3118483F31288BFF36F8FDD
:10424800FEF712FE84F31188BFF36F8F10BD38B5E7
:1042580004464FF02003EFF3118583F31288BFF370
:104268006F8F437B13F0280F0BD183680BB1FFF7D7
:10427800ACFF637B51B903F0FB0320466373FEF781
:10428800F3FD85F31188BFF36F8F38BD03F0EB039F
:10429800F3E701211838FFF7DABF38B54FF02003EC
:1042A800EFF3118583F31288BFF36F8F0468A04280
:1042B8000DD034B12046FFF788FF04F1180000F054
:1042C8001EF885F31188BFF36F8F204638BD002490
:1042D800F7E7034620B9EFF305820AB9FCF7BCBC3F
:1042E80083F31188BFF36F8F70474FF02003EFF30C
:1042F800118083F31288BFF36F8FFFF7EABF10B501
:104308004FF02002EFF3118482F31288BFF36F8F0E
:1043180003683BB1FFF73AF8002084F31188BFF334
:104328006F8F10BD6FF01500F7E708B5FFF72AF992
:1043380008BD70470246014410B58A42134603D0AF
:104348001C780132002CF8D1181A10BD930570B5ED
:1043580048BF22F40072044608464CBF07212721B3
:104368002646B4FBF2F502FB15432C46DBB2092BBB
:1043780084BF5B18DBB2B24203F1300300F8013BA3
:10438800EED970BD0A44431E914200D1704710B562
:1043980011F8014B914203F8014FF9D110BD0244C5
:1043A8000346934200D1704703F8011BF9E7000068
:0C43B8000148006870470000F801002177
:0843C40028BDFF7F010000008D
:1043CC00E50800010000000039150001044400015B
:1043DC00891800012C4400018918000118440001BF
:1043EC006D1C000100000000F50800010000000039
:0843FC00A11400010000000003
:10440400EC460001384600014846000198000021AE
:10441400240200210947000164460001844600018A
:104424009A00002178020021174700017446000118
:0C443400844600019C000021840200214D
:10444000000000005F3E0001000000005F3E000130
:10445000000000005F3E0001000000005F3E000120
:10446000000000005F3E000111210001A540000195
:10447000000000005F3E0001000000005F3E000100
:10448000000000005F3E0001000000005F3E0001F0
:1044900081270001A5400001000000005F3E0001EF
:1044A000000000005F3E0001000000005F3E0001D0
:1044B000000000005F3E0001000000005F3E0001C0
:1044C000000000005F3E0001000000000104000148
:1044D000000000005F3E0001000000005F3E0001A0
:1044E000000000005F3E0001000000005F3E000190
:1044F00000000000FD1C0001000000005F3E000104
:10450000000000005F3E0001000000005F3E00016F
:10451000000000005F3E0001000000005F3E00015F
:10452000000000005F3E0001000000005F3E00014F
:104530002D47000100000000384700010000000086
:104540005447000100000000C446000100000000C4
:10455000FB46000100000000D946000100000000F9
:104560006547000100000000D54600010000000082
:104570000338FDD870470000100000000000000064
:1045800020000000000000004000000000000000CB
:104590008000000000000000000000020000000099
:1045A0000000000400000000000000000100000006
:1045B00000000000000400000000000000080000EF
:1045C00000000000001000000000000000200000BB
:1045D000000000000040000000000000008000001B
:1045E00000000008000000000000000004000000BF
:1045F0000000000008000000000000210000000092
:1046000006000100020000000C460001000000014D
:10461000DD46000106000000E0FF0301000000216C
:10462000E546000121000000E0FF0021F514000133
:10463000C514000100000000E11500017916000119
:10464000D93F0001DF3F000145160001553F000141
:10465000B93F000100000000C93E00010000000059
:1046600000000000FFFF000000088C410000000077
:1046700001000000FFFFFFFF00058C41000000006B
:10468000000000000D190001EB3F0001F73F0001A1
:104690000B400001154000011F400001A51700015B
:1046A0003340000100000000F5FFFFFFCC43000194
:1046B000CC430001EC430001F44300010444000139
:1046C0000444000163627072696E74665F706163B6
:1046D0006B61676500736F63006D707500464C41D8
:1046E00053485F30005352414D5F3000636C6F633D
:1046F0006B40343130303530303000636C6F636B79
:104700005F636F6E74726F6C006770696F403431F5
:10471000386330383030006770696F403431386347
:10472000303530300000000001010000004E5246DC
:10473000585F434C4F434B004E5246585F445050D5
:1047400049000020303030303030303030303030C0
:10475000303000014E5246585F4750494F54450093
:104760006D61696E006F73002A2A2A20426F6F7490
:10477000696E67206E524620436F6E6E65637420CB
:1047800053444B2076322E352E30202A2A2A0A0016
:10479000286E756C6C29002A666C6F61742A0000A3
:1047A000A5A5A5A550000000030000005F3A000188
:1047B000FFFFFFFF000000000000000000000000FD
:1047C00000000000000000000000000000000000E9
:1047D00000000000000000000000000000000000D9
:1047E00000000000000000000000000000000000C9
:1047F00000000000000000000000000000000000B9
:1048000000000000000000000000000000000000A8
:104810000000000000000000000000000000000098
:1048200000000000FF000000000000000000000089
:0848300090000021900000211E
:064838000000000000007A
:04483E0015E015E08C
:04000005010010A93D
:00000001FF
